:040000006F008067A6
:10000400371701401C4705458983858B85CB1C47E1
:1000140009459183858B9DC3832787400D4595832F
:10002400858B89CF8327874011459983858B99C711
:100034001C4701458583858B91E315458280B7F77D
:1000440000E09C4737F700E03E951C47898FE3CEDC
:1000540007FE8280411126C2FD7422C406C6AA8707
:1000640021449384F40FB716014003A70680056664
:1000740013060690658F3EC0518F23A0E6801305BA
:10008400C033753FB716014003A706801305E0325D
:10009400658F1367071023A0E6805537824713F74F
:1000A400170009C713057069593F82477D141374FB
:1000B400F40F85834DF8B24022449244410182807A
:1000C400411126C206C622C4AA87AE843714014051
:1000D4008326048013F717003EC031C77D771306CB
:1000E400F70F0567F18E13070790D98E2320D4806C
:1000F4001305C06FA93703270480FD771386F70F14
:10010400718F136707102320E48013054036053FE1
:100114008247FD1493F4F40F8583CDF8B240224452
:100124009244410182807D771306F70F0567F18EB3
:1001340013070790D98E2320D480130500375DBFA1
:10014400371701401C437D7385651303F30F1111A9
:1001540093860580B3F7670022CA06CC26C8D58FDC
:100164001CC39142232857001C43B706F1FFFD1618
:10017400F58FB7060800D58F1CC3C1471CCB832756
:100184000740370610FF7D16F18F37068000D18FA8
:100194002320F740930700022328F74083270740D2
:1001A400370600F17D16F18F37060008D18F232022
:1001B400F74093030004232877401C43B7160240FA
:1001C4003706014093F7F7F093E707081CC3894704
:1001D4001CCB9C4E138405C09385558093E717016F
:1001E4009CCE1C4693F7F7FC93E707021CC6032535
:1001F40046409307064013654500C8C388476D9978
:1002040088C7C84713654500C8C7884E13651501DC
:1002140088CE08461375F5CF1365052008C6C84374
:1002240013650501C8C388473D9988C7C847136546
:100234000501C8C7884E1365150288CE0846418D4E
:1002440008C6C8430D6413650502C8C388471375FF
:10025400F5FD88C7C84713650502C8C7884E1365EE
:10026400150288CE0846418D08C6C84313650504A7
:10027400C8C388471375F5FB88C7C84713650504C9
:10028400C8C7884E1365150188CE08464D99136575
:10029400850008C6D04313662600D0C39047759ADC
:1002A40090C7D04713662600D0C79C4E1D66DD8DCF
:1002B4008CCEB7360140239076C2239CC6C06176AB
:1002C4002392C6C4930710082390F6C023285780AE
:1002D40083270780B3F7670093E707102320F7808D
:1002E4009307C06E3EC4371702405C4FB706001038
:1002F400D58F5CCFB77600409C4293E727009CC221
:10030400B7F700E003A707D11367470023A8E7D096
:1003140003A607D103A707D1137606021367870242
:1003240023A8E7D003A707D11377F7FD518F23A89C
:10033400E7D073005010730050109C421305C05D49
:10034400F59B9CC2ED396D397D151375F50F9147F9
:10035400E3EBA7F8A2470A053E951C418287B7370D
:100364000140130760022396E7C2294723ACE7C282
:100374000547B7140140239AE7C003A704807D749E
:1003840085671304F40F93860790618F558F0D656D
:1003940023A0E4801305C54B5D3103A704800965E0
:1003A4001305E5A5618F1367071023A0E480413985
:1003B40011454D311305B00F7139214561391305CC
:1003C400700F493983A70480056793060790E18F6E
:1003D400D58F23A0F4801305C033953183A70480FF
:1003E4001305E0327D8C1364041023A084808139CA
:1003F4000139E30A05EE3D65130505A6B71401406E
:100404003D3903A704807D741304F40F8567938634
:100414000790618F558F0D6523A0E4801305C54BAC
:10042400393903A7048085671385F7D2618F136771
:10043400071023A0E480213183A704800567930675
:100444000790E18FD58F23A0F4801305C033C53EF8
:1004540083A704801305E0327D8C1364041023A069
:100464008480F13E55651305058251B7B7370140C5
:10047400130780022396E7C22D4723ACE7C2054742
:10048400239AE7C0B704002083C70400138704003D
:100494003AC2C9CF11649307B4803EC0B714014077
:1004A40039448965824703A604802EC6B3F6F50055
:1004B400D1C2FD761383F60F3376660013660610F9
:1004C40023A0C480130580529D3E83A60480FD773B
:1004D4001383F70F0566B3F6660013060690D18EF4
:1004E40023A0D4801305A051993EB2451307F4FF0D
:1004F4001374F70F85815DF403A70480FD7693865A
:10050400F60F758F136707103715020023A0E480D8
:100514001305C5972D36ED3441F59247124783C72D
:10052400070093C717002300F70075BB0D649307FA
:10053400B400A5B7FD761383F60F8566337666009F
:1005440093860690558E23A0C48013058052C53C23
:1005540083A60480FD771383F70FB3F6660093E652
:100564000610BDBFB7370140130740022396E7C208
:10057400294723ACE7C27D740547239AE7C01304D7
:10058400F40FB714014083A7048005651307059091
:10059400E18FD98F23A0F480130505E14D3483A79F
:1005A400048013054036E18F93E7071023A0F480FD
:1005B40079349D45554529369545054511362965B6
:1005C400130545E3AD3C2D3C4DFD31BBB737014030
:1005D400130760022396E7C2294723ACE7C27D7460
:1005E4000547239AE7C01304F40FB714014003A787
:1005F4000480856793860790618F558F896713857B
:10060400E7A523A0E480253C03A70480896713851C
:10061400E7A5618F1367071023A0E4800D341D45FF
:10062400153C1D45053C094535341305D00F1D34D3
:1006340083A70480056793060790E18FD58F23A0D5
:10064400F4801305C033E53A83A704801305E03230
:10065400E18F93E7071023A0F480D5324165130599
:10066400051DF13A713A51F1BDB91165130585A91A
:10067400F93295B9930740149701002093814118EA
:100684001381010013058008731005308D457390A4
:100694004580170500001305A5964D8D7310553040
:1006A40073901734B70700200147B70600209387DB
:1006B4000700130700709386060063E1D702B7179B
:1006C40002401307000BD8C3954637F700E014C364
:1006D400984F1367470398CF7300203010431107D6
:1006E400910723AEC7FED1BF62030000700400006F
:0C06F40068050000D00500006E06000044
:00000001FF
